{
  "address": "0x014b4b9a47e6b8bA80Beb7B8Bc2dbDAB0F5556DF",
  "abi": [
    {
      "inputs": [],
      "stateMutability": "nonpayable",
      "type": "constructor"
    },
    {
      "inputs": [],
      "name": "TransferFailed",
      "type": "error"
    },
    {
      "anonymous": false,
      "inputs": [
        {
          "indexed": false,
          "internalType": "address",
          "name": "from",
          "type": "address"
        },
        {
          "indexed": false,
          "internalType": "address",
          "name": "to",
          "type": "address"
        },
        {
          "indexed": false,
          "internalType": "uint256",
          "name": "amount",
          "type": "uint256"
        },
        {
          "indexed": false,
          "internalType": "string",
          "name": "message",
          "type": "string"
        },
        {
          "indexed": false,
          "internalType": "uint256",
          "name": "timestamp",
          "type": "uint256"
        },
        {
          "indexed": false,
          "internalType": "string",
          "name": "keyword",
          "type": "string"
        }
      ],
      "name": "Transfer",
      "type": "event"
    },
    {
      "inputs": [],
      "name": "getTransactions",
      "outputs": [
        {
          "components": [
            {
              "internalType": "address",
              "name": "sender",
              "type": "address"
            },
            {
              "internalType": "address",
              "name": "receiver",
              "type": "address"
            },
            {
              "internalType": "uint256",
              "name": "amount",
              "type": "uint256"
            },
            {
              "internalType": "string",
              "name": "message",
              "type": "string"
            },
            {
              "internalType": "uint256",
              "name": "timestamp",
              "type": "uint256"
            },
            {
              "internalType": "string",
              "name": "keyword",
              "type": "string"
            }
          ],
          "internalType": "struct Transactions.TransferStruct[]",
          "name": "",
          "type": "tuple[]"
        }
      ],
      "stateMutability": "view",
      "type": "function"
    },
    {
      "inputs": [],
      "name": "getTransactionsCount",
      "outputs": [
        {
          "internalType": "uint256",
          "name": "",
          "type": "uint256"
        }
      ],
      "stateMutability": "view",
      "type": "function"
    },
    {
      "inputs": [
        {
          "internalType": "address payable",
          "name": "_to",
          "type": "address"
        },
        {
          "internalType": "uint256",
          "name": "_amount",
          "type": "uint256"
        },
        {
          "internalType": "string",
          "name": "_message",
          "type": "string"
        },
        {
          "internalType": "string",
          "name": "_keyword",
          "type": "string"
        }
      ],
      "name": "transfer",
      "outputs": [],
      "stateMutability": "nonpayable",
      "type": "function"
    }
  ],
  "transactionHash": "0xa116aa4b1995c7f36f9dc772d9124de0f86a4802da55d5810e2c48058e672683",
  "args": [],
  "numDeployments": 2,
  "solcInputHash": "e1e5438a7680d82077e9751b5331b091",
  "bytecode": "0x608060405234801561001057600080fd5b50610d5f806100206000396000f3fe608060405234801561001057600080fd5b50600436106100415760003560e01c8063578cb8f91461004657806383920e9014610064578063e9c0281514610082575b600080fd5b61004e61009e565b60405161005b919061060c565b60405180910390f35b61006c6100a7565b6040516100799190610862565b60405180910390f35b61009c60048036038101906100979190610a37565b6102ea565b005b60008054905090565b60606001805480602002602001604051908101604052809291908181526020016000905b828210156102e157838290600052602060002090600602016040518060c00160405290816000820160009054906101000a900473ffffffffffffffffffffffffffffffffffffffff1673ffffffffffffffffffffffffffffffffffffffff1673ffffffffffffffffffffffffffffffffffffffff1681526020016001820160009054906101000a900473ffffffffffffffffffffffffffffffffffffffff1673ffffffffffffffffffffffffffffffffffffffff1673ffffffffffffffffffffffffffffffffffffffff168152602001600282015481526020016003820180546101b490610b05565b80601f01602080910402602001604051908101604052809291908181526020018280546101e090610b05565b801561022d5780601f106102025761010080835404028352916020019161022d565b820191906000526020600020905b81548152906001019060200180831161021057829003601f168201915b505050505081526020016004820154815260200160058201805461025090610b05565b80601f016020809104026020016040519081016040528092919081815260200182805461027c90610b05565b80156102c95780601f1061029e576101008083540402835291602001916102c9565b820191906000526020600020905b8154815290600101906020018083116102ac57829003601f168201915b505050505081525050815260200190600101906100cb565b50505050905090565b60016000808282546102fc9190610b66565b9250508190555060016040518060c001604052803373ffffffffffffffffffffffffffffffffffffffff1681526020018673ffffffffffffffffffffffffffffffffffffffff16815260200185815260200184815260200142815260200183815250908060018154018082558091505060019003906000526020600020906006020160009091909190915060008201518160000160006101000a81548173ffffffffffffffffffffffffffffffffffffffff021916908373ffffffffffffffffffffffffffffffffffffffff16021790555060208201518160010160006101000a81548173ffffffffffffffffffffffffffffffffffffffff021916908373ffffffffffffffffffffffffffffffffffffffff16021790555060408201518160020155606082015181600301908051906020019061043b929190610550565b506080820151816004015560a0820151816005019080519060200190610462929190610550565b50505060008473ffffffffffffffffffffffffffffffffffffffff168460405161048b90610bed565b60006040518083038185875af1925050503d80600081146104c8576040519150601f19603f3d011682016040523d82523d6000602084013e6104cd565b606091505b5050905080610508576040517f90b8ec1800000000000000000000000000000000000000000000000000000000815260040160405180910390fd5b7f416cfa4330a4565f45c2fd2dd4826a83a37443aba2ce6f79477c7355afac35fa33868686428760405161054196959493929190610cba565b60405180910390a15050505050565b82805461055c90610b05565b90600052602060002090601f01602090048101928261057e57600085556105c5565b82601f1061059757805160ff19168380011785556105c5565b828001600101855582156105c5579182015b828111156105c45782518255916020019190600101906105a9565b5b5090506105d291906105d6565b5090565b5b808211156105ef5760008160009055506001016105d7565b5090565b6000819050919050565b610606816105f3565b82525050565b600060208201905061062160008301846105fd565b92915050565b600081519050919050565b600082825260208201905092915050565b6000819050602082019050919050565b600073ffffffffffffffffffffffffffffffffffffffff82169050919050565b600061067e82610653565b9050919050565b61068e81610673565b82525050565b61069d816105f3565b82525050565b600081519050919050565b600082825260208201905092915050565b60005b838110156106dd5780820151818401526020810190506106c2565b838111156106ec576000848401525b50505050565b6000601f19601f8301169050919050565b600061070e826106a3565b61071881856106ae565b93506107288185602086016106bf565b610731816106f2565b840191505092915050565b600060c0830160008301516107546000860182610685565b5060208301516107676020860182610685565b50604083015161077a6040860182610694565b50606083015184820360608601526107928282610703565b91505060808301516107a76080860182610694565b5060a083015184820360a08601526107bf8282610703565b9150508091505092915050565b60006107d8838361073c565b905092915050565b6000602082019050919050565b60006107f882610627565b6108028185610632565b93508360208202850161081485610643565b8060005b85811015610850578484038952815161083185826107cc565b945061083c836107e0565b925060208a01995050600181019050610818565b50829750879550505050505092915050565b6000602082019050818103600083015261087c81846107ed565b905092915050565b6000604051905090565b600080fd5b600080fd5b60006108a382610653565b9050919050565b6108b381610898565b81146108be57600080fd5b50565b6000813590506108d0816108aa565b92915050565b6108df816105f3565b81146108ea57600080fd5b50565b6000813590506108fc816108d6565b92915050565b600080fd5b600080fd5b7f4e487b7100000000000000000000000000000000000000000000000000000000600052604160045260246000fd5b610944826106f2565b810181811067ffffffffffffffff821117156109635761096261090c565b5b80604052505050565b6000610976610884565b9050610982828261093b565b919050565b600067ffffffffffffffff8211156109a2576109a161090c565b5b6109ab826106f2565b9050602081019050919050565b82818337600083830152505050565b60006109da6109d584610987565b61096c565b9050828152602081018484840111156109f6576109f5610907565b5b610a018482856109b8565b509392505050565b600082601f830112610a1e57610a1d610902565b5b8135610a2e8482602086016109c7565b91505092915050565b60008060008060808587031215610a5157610a5061088e565b5b6000610a5f878288016108c1565b9450506020610a70878288016108ed565b935050604085013567ffffffffffffffff811115610a9157610a90610893565b5b610a9d87828801610a09565b925050606085013567ffffffffffffffff811115610abe57610abd610893565b5b610aca87828801610a09565b91505092959194509250565b7f4e487b7100000000000000000000000000000000000000000000000000000000600052602260045260246000fd5b60006002820490506001821680610b1d57607f821691505b60208210811415610b3157610b30610ad6565b5b50919050565b7f4e487b7100000000000000000000000000000000000000000000000000000000600052601160045260246000fd5b6000610b71826105f3565b9150610b7c836105f3565b9250827fffffffffffffffffffffffffffffffffffffffffffffffffffffffffffffffff03821115610bb157610bb0610b37565b5b828201905092915050565b600081905092915050565b50565b6000610bd7600083610bbc565b9150610be282610bc7565b600082019050919050565b6000610bf882610bca565b9150819050919050565b610c0b81610673565b82525050565b6000819050919050565b6000610c36610c31610c2c84610653565b610c11565b610653565b9050919050565b6000610c4882610c1b565b9050919050565b6000610c5a82610c3d565b9050919050565b610c6a81610c4f565b82525050565b600082825260208201905092915050565b6000610c8c826106a3565b610c968185610c70565b9350610ca68185602086016106bf565b610caf816106f2565b840191505092915050565b600060c082019050610ccf6000830189610c02565b610cdc6020830188610c61565b610ce960408301876105fd565b8181036060830152610cfb8186610c81565b9050610d0a60808301856105fd565b81810360a0830152610d1c8184610c81565b905097965050505050505056fea26469706673582212203876e601a81bbedcdb818d5e32d62bbb154fe851cd3352ed4b5d6d796c0581bc64736f6c63430008090033",
  "devdoc": {
    "kind": "dev",
    "methods": {},
    "version": 1
  },
  "userdoc": {
    "kind": "user",
    "methods": {},
    "version": 1
  },
  "storageLayout": {
    "storage": [
      {
        "astId": 5,
        "contract": "contracts/Transactions.sol:Transactions",
        "label": "transactionCounter",
        "offset": 0,
        "slot": "0",
        "type": "t_uint256"
      },
      {
        "astId": 9,
        "contract": "contracts/Transactions.sol:Transactions",
        "label": "transactions",
        "offset": 0,
        "slot": "1",
        "type": "t_array(t_struct(TransferStruct)36_storage)dyn_storage"
      }
    ],
    "types": {
      "t_address": {
        "encoding": "inplace",
        "label": "address",
        "numberOfBytes": "20"
      },
      "t_array(t_struct(TransferStruct)36_storage)dyn_storage": {
        "base": "t_struct(TransferStruct)36_storage",
        "encoding": "dynamic_array",
        "label": "struct Transactions.TransferStruct[]",
        "numberOfBytes": "32"
      },
      "t_string_storage": {
        "encoding": "bytes",
        "label": "string",
        "numberOfBytes": "32"
      },
      "t_struct(TransferStruct)36_storage": {
        "encoding": "inplace",
        "label": "struct Transactions.TransferStruct",
        "members": [
          {
            "astId": 25,
            "contract": "contracts/Transactions.sol:Transactions",
            "label": "sender",
            "offset": 0,
            "slot": "0",
            "type": "t_address"
          },
          {
            "astId": 27,
            "contract": "contracts/Transactions.sol:Transactions",
            "label": "receiver",
            "offset": 0,
            "slot": "1",
            "type": "t_address"
          },
          {
            "astId": 29,
            "contract": "contracts/Transactions.sol:Transactions",
            "label": "amount",
            "offset": 0,
            "slot": "2",
            "type": "t_uint256"
          },
          {
            "astId": 31,
            "contract": "contracts/Transactions.sol:Transactions",
            "label": "message",
            "offset": 0,
            "slot": "3",
            "type": "t_string_storage"
          },
          {
            "astId": 33,
            "contract": "contracts/Transactions.sol:Transactions",
            "label": "timestamp",
            "offset": 0,
            "slot": "4",
            "type": "t_uint256"
          },
          {
            "astId": 35,
            "contract": "contracts/Transactions.sol:Transactions",
            "label": "keyword",
            "offset": 0,
            "slot": "5",
            "type": "t_string_storage"
          }
        ],
        "numberOfBytes": "192"
      },
      "t_uint256": {
        "encoding": "inplace",
        "label": "uint256",
        "numberOfBytes": "32"
      }
    }
  }
}